:4000000000100020110400000904000009040000F8B51148114A1AE055689368D4689D4209D0002104E06E1877683668C0C30831A142F8D100E01B191469002103E0002530
:40004000002660C30831A142F9D1143201380028E2D101F045FFC04601000000B822000080B584B000AF021CFB1D1A70224A3B1C0E3312781A70214A3B1C0F3312781A70D9
:400080001F4B1B68013BBB601AE01E4B1868BA68391C0E31131C5B009B181B1801331B780B70184B1868BA68391C0F31131C5B009B181B1802331B780B70BB68013BBB60EA
:4000C000BB68002B0ADB0F4B1968BA68131C5B009B185B5CFA1D12789A42D6D90A4B3A1C0E3212781A60094B3A1C0F3212781A60BD4604B080BDC046CCF1FF0FCDF1FF0F41
:4001000090220000EC0000201CFF0B4020FF0B4080B500AF1B4A1B4B19688023DB020B4313601820FFF79CFF174B19221A60052001F036F9154B164A1278D2B21A6005202E
:4001400001F0E4FA0F4B0F4A1168124A0A401A60114B20221A60114B20221A60104B10221A60104A80231B0613600F4A80231B0613600E4B0E4A1A600E4B0F4A1A60BD46B2
:4001800080BDC04600010B402CFF0B4028FF0B40E5F1FF0FFFFFFBFF20020240240202403002024008010B4004010B40000002403300008040000240CF07008080B586B0D0
:4001C00000AF72B6604B01221A70FB1C00221A7024E0FB1C1A78131C5B009B185B001A1C5A4BD3187B607B681A78597809020A43997809040A43DB781B0613431A1C7B683B
:4002000019795B791B020B439BB2101C191C01F091FAFB1CFA1C127801321A70FB1C1B78012BD6D9FB1C00221A7038E0FB1C1A78131C9B009B185B001A1C454BD318BB60A2
:40024000BB681A78597809020A43997809040A43DB781B061343FB60BB681A79597909020A43997909040A43DB791B0613433B613A1C1632BB68197A5B7A1B020B43138036
:400280003B1C16331B88F9683A69081C111C1A1C01F060FAFB1CFA1C127801321A70FB1C1B78002BC2D02B4A2B4B101C191C01F063FA2A4A80235B001380294B01221A708A
:4002C000284ACC239B041360274AEE231B021360264B60221A60264B264A1A60264AD8231B011360254B264A1A60264A82231B061360254AE0235B051360244A99231B0426
:400300001360234B10221A60224B10221A60224B05221A60214B06221A60214B204A1278D1B202220A43D2B21A701D4B1C4A1278D1B206220A43D2B21A70FFF7E9FE01F06D
:400340005BFABD4606B080BD1C700F40A41F0000B01F0000BC1F0000E41F000000600F4002600F40000001400C000140000004400800044000107B000803044000500F40F0
:400380000400990004500F4008500F4030500F4020010540600105402000004000800F4000700F4000B5034B1A78002A01D10120187000BDF000002008B504480368002BE7
:4003C00003D0034B002B00D0984708BDD00000200000000080B500AF00F0DEFE00F078FF00F0CEFF031C012B03D1064B40221A6004E0044B80221A6001F054F900F09EF81A
:40040000FEE7C046C000002080B500AFFEE7C046024B9D4600F0F4F8014B1847001000201100000080B582B000AF00237B600FE079687B68032B04D87A68104B9200D3585F
:4004400000E00F4B0F4A89008B507B6801337B607B682F2BECD9FFF7B1FE0B4B00221A600A4B1B68002B02D1084B00221A608023DB0501221A60BD4602B080BD0000000023
:400480000904000000000020C8000020C000002080B584B000AF78600A1CBB1C1A803B1C0E3300221A800CE07B681B78191C3B1C0E333A1C0E3212888A181A807B680133BA
:4004C0007B60BB1C1B885A1E9341DBB2BA1CB91C098801391180002BE6D13B1C0E331B885B429BB29BB2181CBD4604B080BDC04680B584B000AF786039603B1C0F33002201
:400500001A700AE07A683B68D31819783B1C0F333A1C0F3212788A181A703B685A1E9341DBB23A68013A3A60002BEBD13B1C0F331B78181CBD4604B080BDC04680B582B0C5
:4005400000AF234B1B681B68C03BC020191CFFF7CFFF031C1A1CFB1D1A701E4B1B681A78FB1DF91D09788A1A1A70FB1D1B785B42DAB2FB1D1A70174B1B681B78FA1D1278A3
:400580009A4204D1124B1B681B68002B02D1002001F07EF800F07EF8031C002B09D10E4B1A6810231340002B09D00C4B1B68402B05D10A4B00221A60002000F0F7F8002088
:4005C00000F0F4F800F00CF8BD4602B080BDC046D8000020D400002000030B40C000002080B500AF034B80221A60034B034A1A60BD4680BDC00000200CED00E00400FA05BA
:4006000080B500AF1C4B1A6810231340002B31D01A4B1B68802B2DD1184B00221A60184B1B78DBB21A1C174B1B78DBB21B021A43154B1B78DBB21B041A43144B1B78DBB27B
:400640001B061343002B15D00D4B1B78DBB21A1C0C4B1B78DBB21B021A430B4B1B78DBB21B041A43094B1B78DBB21B061343181C00F00EF8BD4680BD00030B40C0000020DF
:40068000C17F0000C27F0000C37F0000C47F00000047C04680B584B000AF3D4B1B78DBB21A1C3C4B1B78DBB21B029BB213439BB20133DB011A1C384B1B78DBB2191C374B9D
:4006C0001B78DBB21B021943354B1B78DBB21B041943344B1B78DBB21B060B43D318BB603B1C0D3300221A703B1C0E3300221A70274B1B78DBB21A1C264B1B78DBB21B0235
:400700009BB213439BB20133DB017B601FE07A683B1C0F3312781A703B1C0F331B78002B08D03B1C0F331B78FF2B03D03B1C0D3301221A703B1C0E33391C0E313A1C0F32F1
:40074000097812788A181A707B6801337B607A68BB689A42DBD33B1C0E331B785B42DAB23B1C0E331A70104B1B78DBB23A1C0E3212789A4204D13B1C0D331B78002B01D1D8
:40078000062300E00023181CBD4604B080BDC046C57F0000C67F0000C97F0000CA7F0000CB7F0000CC7F0000C07F000090B5BB4CA54400AF021CBA4BC2208000C019C318D4
:4007C0001A70BD2189007B1800221A80B54ABB1800221A80B44C3B1900221A70B3483B18AF4AC2218900C9198A18127851424A411A70AB4BC2229200D219D3181B78002BC2
:4008000007D1A74BC224A400E419E21801235B42137000F099FB62B6A5483B1800221A70DE225200B91896235B00BA24A4003A199B48C224A400E419201800788446081C8D
:40084000191C634600F0BEFB031CBC208000C0190360BC218900C9190B68102B00D101E3BC229200D2191368052B00D1FCE2BA24A4003B191B88062B07D98E4BC220800015
:40088000C019C3181B78012B04D089497B1804221A7069E0DE225200BB1802331B78DBB2191CDE2464003B1903331B78DBB21B029AB2BD2080003B180A431A80BD2189006D
:4008C0007B181B881A1DDE2464003B199B181B78DBB2191CBD2080003B181B885A1DDE2464003B199B181B78DBB21B029AB272483B180A431A80BD2189007B181B88DA1D81
:40090000BA24A4003B191B889A4204D968483B1803221A7028E0BD2189007B181B880633644AC224A400E419A218D35C172B04D05F483B1804221A7016E0BD2189007B1827
:400940001B8804339BB2DE2464003A19101C191CFFF79EFD031C58483A1812889A4203D053497B1808221A70544ABB1800221A804F4C3B191B78002B00D064E250483B188D
:400980004C4AC2218900C9198A1812791A70484ABB1804221A70474BC224A400E419E3185B78313B0A2B00D914E29A00454BD3181B689F463D483B181B78002B00D10EE25C
:4009C000BD2189007B181B88002B00D009E23B4ABB1801221A80FFF75DFE031C5A425A41344BC224A400E419E3181A7130483B1800221A7027E22D497B181B78002B00D114
:400A0000F1E1BD229200BB181B88012B00D0ECE12B4C3B191B78002B36D129483B181B78002B05D1284B1B681B68DB099BB200E00023BF2189007A181380BF229200BB18CB
:400A40001B88DAB21B4BC224A400E419E3181A71BF2080003B181B881B0A9BB2DAB2154BC2218900C919CB185A71124BC224A400E419E21801235B4293710E4BC2208000C7
:400A8000C019C3180022DA710C497B1804221A80074ABB1800221A70D5E1C046F4FCFFFFFFFCFFFFF6020000F9020000FA020000ED020000B4FEFFFFEE020000EA02000090
:400AC000FB020000701F0000D8000020CB4C3B191B78002B06D0BD2080003B181B88032B00D084E1C6497B1880221A803B1C9033181C0021802201F0ADF9C04ABB181B78C7
:400B0000002B00D175E1BD24A4003B191B88022B00D870E1BA483B181A883B1C90339B18BD2189007A181288033ADE24640039190731181C01F00EF9BD2080003A18B04939
:400B40007B1812881B88D3189AB2AD4C3B19033A1A80BD2080003B1880221A80A8497A18BD24A4003B1912881B889A423BD1DE2040003B1805331B78DBB2191CDE2252006D
:400B8000BB1806331B78DBB21B029AB29C4C3B190A431A809B483B181B78002B10D13B1C0833181C0021802201F054F93B1C0833FF20191C00F004FC92497B1801221A70F0
:400BC0008F4ABB181A883B1C9033101C191C00F0F7FB031C002B01D00A2300E000238A4C3A19137003E088483B1803221A7084497B1800221A8026E1814ABB1800221A8021
:400C000033E17F4C3B191A88BD2080003B181B88D3181A1C96235B009A4220D87A497B1800221A70764ABB181A883B1C90339B18BD24A4003A191288DE2040003918043149
:400C4000181C01F087F86E497B186D4AB918BD24A4003A19098812888A181A80F3E06A483B1803221A70EEE0BD2189007B181B88002B00D0E2E0654BC2229200D219D31814
:400C8000634A11CA11C35D497B1801221A70614ABB1808221A805F4C3B191B88DE2040003A18111D3A1C8832081C111C1A1C01F051F855497B1800221A70C4E04F4ABB1892
:400CC0001B78002B00D1BBE0BD24A4003B191B88032B00D0B6E0DE2040003B1805331B78DBB2191CDE225200BB1806331B78DBB21B029AB2484C3B190A431A8047483B1804
:400D00001B781A0244497B181B88D318DB01C0229200D2191360C024A400E4192368181C8021FFF7E5FB031C1A1C3D483B181A703A497B181B78002B2BD1374ABB181B886F
:400D4000FF2B26D1344C3B191A8801231340DBB2002B01D0002300E0012332483A18137030497B181A7880235B009B1ADB01303B1A782B4C3B192A48391809788A1A1A70FF
:400D8000294B1A7826497B18254C391909788A1A1A7023483B181B785B42DBB2DAB2234BC2218900C919CB181A71174ABB1800221A70184C3B1901221A8044E0FFF76AFCB3
:400DC000031C002B02D11A4B80221A60194B1A4A1A604AE00C483B1805221A7033E0C04631E0C0462FE0C0462DE0C0462BE0C04629E0C04627E0C04625E0C046FA02000005
:400E0000F6020000F9020000ED02000080FDFFFF9C1F0000EA020000FE020000FB0200000603000007030000D17F0000B4FEFFFFC00000200CED00E00400FA05C04602E0FA
:400E4000C04600E0C0460E497B181978DE235B00FA180C4C3B191B88081C111C1A1C00F015F802E0C04600E0C04607483B181B78002B00D0D0E4BD46C3239B009D4490BD66
:400E8000ED020000EA020000FA02000080B586B000AFB9603B1C0F33011C1970BB1D1A80BB6801221A70BB6801333A1C0F3212781A70BB680233BA1D1288D2B21A70BB68AB
:400EC0000333BA1D1288120A92B2D2B21A70BB1D1B8804339BB2BA68101C191CFFF7D8FA031C1A1C3B1C16331A80BB1D1B881A1DBB68D3183A1C16321288D2B21A70BB1D26
:400F00001B885A1DBB68D3183A1C16321288120A92B2D2B21A70BB1D1B889A1DBB68D31817221A70BB1D1B8807339AB2B968BB1D081C111C1A1C962300F010F8031C181C5B
:400F4000BD4606B080BDC04680B500AF00F058FC00F07AFD00F032FEBD4680BD80B586B000AFF8607A601A1C3B1C0A331980FB1C1A703B1C163300221A8000F065FD3B1C31
:400F800016331A88FB68D3181B78181C00F0A6FD3B1C16333A1C1632128801321A803A1C16323B1C0A3312881B889A42E7D37B683A1C0A3212881A800023181CBD4606B03B
:400FC00080BDC04690B589B000AFF8607A601A1C3B1C0A331980FB1C1A700523FB613B1C143300221A8023E000F0E8FC031C002B14D000F0E3FC031C1A1C3B1C1A331A8006
:40100000192000F05FFB00F0D9FC031C3A1C1A3212889A42EDD30023FB6114E0012000F051FB3B1C14333A1C1432128801321A803B1C14331988FB1C1A78131C9B009B189B
:401040005B009942D0DB7B6800221A803B1C163300221A8052E000F0B1FC031C1A1C3B1C18331A807B681A883B1C18331B88D3189AB27B681A807B681B883A1C0A32128804
:401080009A4230D93B1C143300221A8016E03B1C16331A88FB68D41800F040FC031C23703B1C16333A1C1632128801321A803B1C14333A1C1432128801321A803A1C1432AA
:4010C0003B1C183312881B889A42E0D33B1C16331B885A1EFB68D3181B78172B0DD0052000F0F0FA0AE07B681A883B1C18331B88D31A9AB27B681A8005E0C04600F05EFC29
:40110000031C002BA7D1FB69181CBD4609B090BD80B500AF0E4A8023DB0413600C4B0C4A12681A600A4B0A4A12681A60094B0C221A60012000F07CF8FF2000F03FF87F2077
:4011400000F04AF8044B31221A60BD4680BDC04640010540640105406801054080B582B000AF00F026F9031C1A1CFB1D1A70094B084A116802220A431A60FB1D1B78181CF8
:4011800000F01BF90220182100F034F8BD4602B080BDC0460000054080B500AF064B1B78002B04D1FFF7B4FF034B01221A70FFF7D5FFBD4680BDC046F100002080B582B083
:4011C00000AF7860034B7A681204120C1A60BD4602B080BD5401054080B582B000AF7860034B7A681204120C1A60BD4602B080BD4C01054080B584B000AF7860396000F035
:40120000D8F8031C1A1C3B1C0F331A70074B3A687968081C9040021C1A603B1C0F331B78181C00F0CAF8BD4604B080BD0800054080B582B000AF7860024B7A681A60BD4618
:4012400002B080BD7801054080B500AF0E4A8023DB0413600C4B0C4A12681A600A4B0A4A12681A60094B0C221A60012000F07CF8FA2000F03FF87F2000F04AF8044B31221D
:401280001A60BD4680BDC04600010540240105402801054080B582B000AF00F08AF8031C1A1CFB1D1A70094B084A116801220A431A60FB1D1B78181C00F07FF80120182128
:4012C00000F034F8BD4602B080BDC0460000054080B500AF064B1B78002B04D1FFF7B4FF034B01221A70FFF7D5FFBD4680BDC046F200002080B582B000AF7860034B7A68E9
:401300001204120C1A60BD4602B080BD1401054080B582B000AF7860034B7A681204120C1A60BD4602B080BD0C01054080B584B000AF7860396000F03CF8031C1A1C3B1C4A
:401340000F331A70074B3A687968081C9040021C1A603B1C0F331B78181C00F02EF8BD4604B080BD0800054080B582B000AF7860024B7A681A60BD4602B080BD3801054082
:4013800080B500AF044B1A6880231340DB09DBB2181CBD4680BDC04604000440000000000230800804D0C0460138FDD1C046C0467047EFF3108072B6704780F310887047DE
:4013C00080B5AAB000AF7860396000239C21C9190B607B68FF2B00D996E03B68002B00D192E03B1C1033A022D21913604E4BA021C9190A681A607A6880235B0013401A0471
:401400004A4B1A433B1C10331A603B1C10337F225A603B1C10331A1C08323B68101C191C802200F097FC424B424A1A60404B1B68002BFBDB3C4B1B689822D21913609823FF
:40144000DB191A68A0231B069A4204D100239C21C9190B6015E09822D21913681B0F1A07F0231B069A4204D109239C21C9190B6007E02D4B1B681B0F1A07A0231B069A42CC
:40148000F7D19C22D2191368002B42D13B1C1033A021C9190B60244BA021C9190A681A607B681A04244B1A433B1C10331A60FFF780FF031C1A1C3B1CA7331A701F4B1B6809
:4014C000FB601B4B1E4A1A60194B1B68002BFBDB1A4BFA681A603B1CA7331B78181CFFF76CFF114B1B689822D21913609823DB191A68A0231B069A420DD09821C9190B68F4
:401500009C22D219136007E001239C21C9190B6002E0C04600E0C0469C22D2191368181CBD462AB080BDC04608000040B6D700000400004004000080B6D8000008010B40B5
:401540000500008080B584B000AF021C3960FB1D1A7080239B05FB60FB1D1B781F2B02D9002000F095F8FB1D1B7810339A00FB68D3181B68BB60FB1D1B7810339A00FB680B
:40158000D3183A681A60BB68181CBD4604B080BD80B586B000AF0A1CFB1D011C1970BB1D1A70BB1D1B78032B02D9002000F070F8FB1D1B781F2B02D9002000F069F8FB1D34
:4015C0001A7803231340DB0006333B61FFF7F1FE031C1A1C3B1C0F331A70FB1D1B789B08DBB29B0013495B181B687B613B690322111C99400B1CDB437A6913407B61BB1D31
:401600001A783B69111C99400B1C7A6913437B61FB1D1B789B08DBB29B00064A9B187A691A603B1C0F331B78181CFFF7C6FEBD4606B080BD00E400E080B582B000AF021C54
:40164000FB1D1A70064BFA1D11781F220A400121081C9040021C1A60BD4602B080BDC04600E100E080B582B000AF021CFB1D1A70064BFA1D11781F220A400121081C90407D
:40168000021C1A60BD4602B080BDC04680E100E080B582B000AF021CFB1D1A7001BEBD4602B080BD80B500AF044B044A12681204110C034A0A431A60BD4680BD0CED00E077
:4016C0000400FA0580B582B000AF786008E00C4B1B68181CFFF764FE7B680A4A9B187B607A6880231B029A42F1D8074B1B687A685343181CFFF754FEBD4602B080BDC046DE
:40170000E80000200080FFFFE000002080B582B000AF021CBB1D1A80BB1D1B88044A12785343181CFFF73CFEBD4602B080BDC046E400002080B582B000AF786039607A68CB
:401740003B68101C00211A1C00F084FBBD4602B080BDC04680B584B000AFF860B9607A60F968BA687B68081C111C1A1C00F0F2FABD4604B080BDC04680B586B000AF7860C4
:4017800039600023FB600023BB602EE0BB689A007B68D3181B683B613B1C17333A691A703B69FF2293433B6117E0FB685A003B68D3181B781A1C3B69D318FA6851003A6828
:4017C0008A1852781A70FB680133FB603B1C17333A1C17321278013A1A703B1C17331B78002BE2D1BB680133BB60BB68092BCDD9BD4606B080BDC04680B500AFBD4680BDD1
:4018000080B500AF064B1B78002B04D100F00AF8034B01221A7000F039F8BD4680BDC046F300002080B500AF114B0020191CFFF789FE00200321FFF7ABFE0E4B72221A700D
:401840000D4B20221A700D4B0220191CFFF77AFE02200321FFF79CFE094B07221A70094B48221A70084B02221A70BD4680BDC0461D1C000080000F4081000F40CD1C0000FA
:4018800022000F4032000F4083000F4080B582B000AFFFF78EFD031C1A1CFB1D1A70144B134A1278D1B220220A43D2B21A70114B104A1278D1B210220A43D2B21A70002000
:4018C000FFF7BAFE0C4B0C4A1278D1B210220A43D2B21A700220FFF7AFFE00F02DFAFB1D1B78181CFFF769FDBD4602B080BDC04690000F4091000F4093000F4080B500AF5F
:401900000020FFF799FEBD4680BDC04680B500AF0020FFF7A7FEBD4680BDC04680B582B000AFFFF7F3FFBB1D1F4A12781A70FB1D1E4A12781A701E4B1B78DBB2002B05D15E
:40194000BA1DFB1D12781B789A421ED0BB1D1A787B1D18498A5C1A70BB1DBA1D127801321A70BB1D1B783F2B02D9BB1D00221A700D4BBA1D12781A700D4B1B78DBB2002BAE
:4019800008D00B4B00221A7005E00B4A7B1D12781A7000E0C046FFF7B1FF7B1D1B78181CBD4602B080BDC046F6000020F7000020F8000020FC00002040000F4080B582B02D
:4019C00000AFFFF7A3FF1D4B1B78DAB21C4B1B78DBB29A420CD11B4B1B78DBB2002B03D0FB1D40221A7020E0FB1D00221A701CE0124B1B78DAB2124B1B78DBB29A4209D2E1
:401A00000F4B1B78D9B20D4B1B78DAB2FB1D8A1A1A700AE00A4B1B78DAB2084B1B78DBB2D31ADAB2FB1D40321A70FFF767FFFB1D1B78181CBD4602B080BDC046F6000020CA
:401A4000F7000020F800002080B582B000AFFFF7B0FC031C1A1CFB1D1A70134B124A1278D1B201220A43D2B21A700F4A0E4B1B78DBB2FE210B401370FB1D1B78181CFFF7AF
:401A80009CFCFFF743FF094B00221A70084B00221A70084B00221A70074B00221A70FFF72DFFBD4602B080BD90000F40F6000020F7000020F8000020F900002080B500AF25
:401AC0000220FFF7B9FDBD4680BDC04680B500AF0220FFF7C7FDBD4680BDC04680B584B000AF021CFB1D1A703B1C0E332E4A12781A703B1C0F332D4A12781A703A1C0E3216
:401B00003B1C0F3312781B789A420BD23B1C0E331A783B1C0F331B78013BD31A5A425341DBB20AE03B1C0E331A783B1C0F331B78D31A3F3B5A425341DBB2002BD4D13A1C70
:401B40000F323B1C0E3312781B789A420CD1184B1B78DBB21A1C04231340002B04D1154BFA1D12781A701BE03B1C0E331B783F2B03D93B1C0E3300221A703B1C0E331B781D
:401B80000D4AF91D0978D1543B1C0E333A1C0E32127801321A70044B3A1C0E3212781A70BD4604B080BDC046F5000020F400002063000F4043000F403C01002080B582B079
:401BC00000AFFFF7F6FB031C1A1CFB1D1A70104B0F4A1278D1B201220A43D2B21A700C4A0B4B1B78DBB2FE210B401370FB1D1B78181CFFF7E2FBFFF769FF064B00221A7053
:401C0000054B00221A70FFF759FFBD4602B080BD93000F40F4000020F500002080B582B000AFFB1D00221A70214ABB1D12781A7034E0204B1B78DBB21F4A1278D1B21F4AAE
:401C4000D154FB1D01221A70FB1D1B78002B21D01B4B1B78DBB2002B02D01A4B01221A70144B1B78DBB20133DAB2124B1A70114B1B78DBB23F2B02D90E4B00221A700D4BDA
:401C80001B78DAB2104B1B78DBB29A4202D10C4B01221A70064ABB1D12781A70BB1D1A7820231340002BC4D1BD4602B080BDC04661000F40F700002040000F40FC00002071
:401CC000F8000020F9000020F600002080B500AF16E0144B1B78DBB23F2B02D9114B00221A70114B0F4A1278D2B210498A5CD2B21A700C4B1B78DBB20133DAB2094B1A70D2
:401D0000084B1B78DAB20A4B1B789A4207D0094B1B78DBB21A1C04231340002BD9D0BD4680BDC046F400002043000F403C010020F500002063000F4080B500AF044A044B0D
:401D4000196880231B060B431360BD4680BDC04600000240F0B585B0032A09D8002A05D00023CC5CC45401339342FAD105B0F0BD8218031C032403E00D7801311D7001331A
:401D800003252342F8D10D403DD1D41A22E00D68403C1D604D685D608D689D60CD68DD600D691D614D695D618D699D61CD69DD610D6A1D624D6A5D628D6A9D62CD6ADD6296
:401DC0000D6B1D634D6B5D638D6B9D63CD6B4031DD6340333F2CDADCD41A0AE00D68103C1D604D685D608D689D60CD681031DD6010330F2CF2DCD41A02E020C9043C20C3A9
:401E0000032CFADC23E0EF006C42029704270E597D1BED000095B446D51A0C190FE0266867460196029E0431F7400397009E019F043DB740039E3E43019F40C3BC460434CE
:401E4000032DECDC03E00C7801311C7001339342F9D38BE730B5C9B2032A08D8002A05D0031C1218197001339342FBD130BD8418031C032201E0197001331342FBD10A0253
:401E8000521815045219E51A11E01A605A609A60DA601A615A619A61DA611A625A629A62DA621A635A639A63DA63403D40333F2DEBDCE51A05E01A605A609A60DA60103DD0
:401EC00010330F2DF7DCE51A01E004C3043D032DFBDC01E0197001339C42FBD8C6E7C04608B500F01DF80A4B002B01D1002000E01868084B002B01D1002100E01968002217
:401F0000FEF768FA044B002B01D000E000BFFEE7000000000000000000000000FEE7000070B50D4D0D4E761BB610002E05D0002408CD01349847A642FAD800F0ABF9084DB2
:401F4000084E761BB610002E05D0002408CD01349847A642FAD870BDA0220000A0220000A0220000A82200002800000000230000B4090000F6090000D40D0000CC0A0000EF
:401F8000F80B0000D40D0000020C0000680C0000FA0A0000BC0C0000BC0D00009311C804110A010180300F40800300400F40000400300F40102200008000000003000F4001
:401FC00016300F403B310F4062320F4042330F400E400F4005410F4002420F4006430F4002600F4080728138830F88048A088E0192029410A601A808AA04AE02AF01B002A3
:40200000B101B201B410B60CBE55D418D604D804D904DB04DF010004038A0520070209220A100D080F8010801202132815081605180419961B481C021F252040212022064C
:4020400023022740282029102B802D403124334038683A024021412042104990510452015A085D02674A69146A40709472027328876088018D20C0CFC23EC4EFCA17CC0E3C
:40208000CE0FD00ED20CD682D8B0E280049C057806220783081413D7157816031785188019021A10200922F02430252E264C282C29602AD12B80321F330734E035E4371873
:4020C00039803A203B283F40400145054610480949FF4A074BFF4C404D204EF04F055008580459045A045F01604061A8624063208044823187018902908093019501980151
:4021000099019A0EA104A4E7A701A8E7AC22AE51B060B102B280B304B407B502B618B701BE40BF54C036C102C5E0C6B0C70CC81AC9FFCAFFCBFFCEF0CF44D00CD401D60434
:40214000D804D904DA04DB04DF01E6C0EA40EB02010204240A440D080F04115415021714180119021A141B021C041D081F302008210122462544271429012B202D202F1496
:40218000320233143622370438083A103D0843144540480449014E204F0450145304561059215A8862018201850286049154924094019610A50AA702A940AA04AB80C06867
:4021C000C26AC477CA63CCE7CE46D016D204D60FD801EA0108085D02670868806E80864087048902C210D680D880DA80DC20E6508080A480A808E220EC208F08E2081A10F6
:402200001F089610A708AA10C60C10011101000041100000F3180C000F08F000823C0042C3000000003CF341FF7F00000000000408040000040000030C6700181C00E300B2
:40224000C01F2C200F001C40008028220000000463020500010000CE30FFFFFF62A0F0410C000000000002120404040400000001000000000000400200103010001010126C
:402280000000000000000000000000000000000004000000F8B5C046F8BC08BC9E467047B903000025040000F8B5C046F8BC08BC9E467047A503000000000000D02200000F
:4022C000D000002020000000900000000000000000000000681F00006C1F000000366E01C05D0000180000000000E02EC0F1FF0F0000000000000000000000000000000085
:402300000010002011230000D5250000D525000010B5024B83F3088800F064F90010002070B5134C23688022D20213432360182000F048FB22680F4B134023600E4A0F4B7B
:402340001A6010220E4B1A60822212060D4B1A60002525600C4A0D4B1A600D49092000F0EFFA092000F0E0FA0A4B1D6070BDC04600010B40FFFFFBFF0600008004010B4014
:402380001C02024008010B400900008000000240D52B00000C020B4010B572B600240FE029486200131959000B00411889881A5AC31858880004104300F0ECF80134E4B253
:4023C000012CEDD9204801000C31303000F0C8F8C022D2051D4B1A60EE2212021C4B1A6099231B041B4A13601B4A1360802109061A4A11601A4A13601A4A13601A490B78F0
:402400003C22934314221343DBB20B70174A117816230B43DBB21370154A164B1A608023154A13601549164A1160164A1360783B154A1360154A1360154A164B1A60FFF71B
:402440006FFF00F0BDF810BD182D0000040001400C00014000500F4010500F4018500F4020500F4030500F4001700F4000700F404992D8000800044000010440B66D030029
:4024800008010440180104400002044018020440800D24000803044010B5064C2378002B07D1054B002B02D0044800E000BF0123237010BD4801002000000000142D0000B3
:4024C000084B10B5002B03D00749084800E000BF07480368002B00D110BD064B002BFBD09847F9E7000000004C010020142D0000C80000200000000010B500F055F900F075
:4025000063F900F0E9F9012000F068F9002804D0002000F077F9114B1870104B002018560A2805DD0A221A700A2000F087F90BE0042806DC0522094B1A70052000F07EF9C4
:4025400002E0C0B200F07AF900F0E6F9840000F093FB204300B200F0CFF9D4E78C010020F0B50025002711E0BB00C658F3B2FF22964308E06A008A181478A41952782270AB
:402580000135013BDBB2002BF4D10137042FEBD9F0BDC04610B50A00002100F0B3FB10BD064B1B68002803D080221206134301E05B005B08014A13607047C04680031A4019
:4025C00010B50822024B1A600120FFF7E9FF10BD00031A4010B500F069FB03680C2B00D1FEE7FEE770B50F4E0F4D13E029686B68AC68002202E001C901C30432A242FAD1E6
:40260000E868002202E0002102C304328242FAD11035013E002EE9D100F04EFBFFF76CFFFEE7C04601000000B02D000010B500230AE0032B03D89A000C49505800E00C4826
:4026400099000C4A885001332F2BF2D9FFF7A4FE094B1B68002B02D10022074B1A608022D205116801230B43136010BD00230000D525000000000020C000002010B5032135
:402680000E2000F06FF926490E2000F059F90122244B1A60244B1B68002B01DA234900E02349244A13680B431360234A234B1A60234A244B1A600023234A1360234A2449C7
:4026C0000A6024490A6024490A688020400202430A60224A1360224A13600133214A13600221214A116021480468214A224013430360204B196000230EE09A001E495118A0
:40270000802080000860580000241C494452C22040001B4950500133002BEED010BDC0463128000020001A4080031A40700210517002005100001A408C00008004001A407A
:402740000000FF0718001A401C001A400400040010001A4014001A4000031A4028021A4038021A4018021A40000F1A4030001A40FFFFFFDF040F1A4080001A4090010020DB
:402780009401002010B5074B1B68002B08DB054A1368802109060B4313600A2000F008F910BDC04600001A4010B5064B1B78002B04D1FFF763FF0122024B1A70FFF7E2FF67
:4027C00010BDC04664010020034A1368802149020B4313607047C04604001A40020083070CD0074B1B680120184001D19307F8D4002804D00122024B1A6000E00020704766
:4028000010021A4010B5041E02D0002000F096F8002C07D1A400054B9C46644420680004000C00E0002000B210BDC04680011A40014B1A681A60704710021A40044A136827
:40284000DBB20F218B430840184310607047C0460001044010B500F021FA0F4C23680F22934319000D4B1B7813400B4323600C4A136813600B4B1C680B492140196014680B
:402880007821214311601A68802149020A431A6000F008FA10BDC04604FF084061F1FF0F0800084004000840FFFFFEFF10B500F0F5F9074A1368C02189000B431360054A85
:4028C0001368802109060B43136000F0EBF910BD080008400400084010B5064B1B68002B04D1FFF7B7FF0122024B1A60FFF7DEFF10BDC0466801002010B5040000F0CEF9D1
:40290000044A1368FF218B431C43146000F0CAF910BDC04608000840024B1B683F2018407047C046040004401F2318401E3B8340014A13607047C04600E100E001BE704743
:4029400070B504000D001F2802D90020FFF7F6FF1034A40080239B059C4664442068256070BDC04670B504000E00032902D90020FFF7E4FF1F2C02D90020FFF7DFFF032586
:402980002540ED00063500F089F9A408A400074B9C46644421680323AB4099430B003100A9401943216000F07DF970BD00E400E010B5034B1B7B584300F066F910BDC046B7
:4029C000CC000020F0B557464E46C0B483B0040000F064F90190E71E2D2F74D83F4B1B78DBB29C4208D83E4B1B78DBB29A463D4B1B78DBB2994631E03B4B1B78DBB29C42D2
:402A000008D83A4B1B78DBB29A46394B1B78DBB2994623E0374B1B78DBB29C4208D8364B1B78DBB29A46354B1B78DBB2994615E0334B1B78DBB29C4208D8324B1B78DBB25D
:402A40009A46314B1B78DBB2994607E02F4B1B78DBB29A462E4B1B78DBB299462D4BDE5D2F2E09D92A2C07D919222B4B1A60052000F00AF9192503E0274B1D683F231D40E0
:402A8000B54206D9234BDA5D234B1A60052000F0FBF81F4B9C4664442378DBB21F4A13601F4B52461A601F4B4A461A600520FFF77FFFB5420AD2174BDA5D174B1A600520BD
:402AC00000F0E2F802E00020FFF738FF019800F0E9F803B00CBC91469A46F0BDC0F1FF0FC1F1FF0FC2F1FF0FC3F1FF0FC4F1FF0FC5F1FF0FC6F1FF0FC7F1FF0FC8F1FF0FB9
:402B0000C9F1FF0FCAF1FF0FCBF1FF0FCCF1FF0FCDF1FF0F5C2D00002CFF0B4028FF0B401CFF0B4020FF0B40034B1868C0231B02184000D00120704700010B4010B500F093
:402B4000ADF8044A1368C02109020B43136000F0A9F810BD00010B4010B500F09FF808490A68084B1A408024E40122430A600A6813408022120213430B6000F093F810BDF8
:402B800000010B40FF3FFFFF70B5050000F086F80400FFF7C9FF002803D0FFF7DDFF012100E0002108482840084A1568084B2B40184310601368012901D1FFF7BFFF2000E8
:402BC00000F070F870BDC0460404040010020B40FBFBFBFF10B5244B1B685B0715D5234B1B685B070ED5224BD969042001401F4C22688A432260DA698243DA611B69002B6E
:402C000000D098470420FFF7BFFF174B1B685B0518D5164B1B685B0510D5154BD9698022D2001140114802688A430260D969114A0A40DA615B69002B00D098478020C00039
:402C4000FFF7A2FF084B1B685B030CD5074B1B685B0304D5064B9B69002B00D098478020C002FFF791FF10BD10020B40E00000206C010020FFFBFFFF024B1868800903235A
:402C800018407047040304400230800804D0C0460138FDD1C046C046C0467047EFF3108072B6704780F310887047C046014B18687047C046440100200E4B70B500251E008E
:402CC0000D4CE41AA410A54204D0AB00F35898470135F8E700F05AF8084B00251E00084CE41AA410A54204D0AB00F35898470135F8E770BD982D0000982D0000982D000025
:402D0000A02D000003008218934202D019700133FAE770470000000000300F40000400400F40000438A03E5058045F011D201F408740892063108710D840E2107410DC0273
:402D40008810A410E401000004320F4004330F4004410F4002420F4003430F40030405060708090A0B0C0E0F101112131415161718191B1C1D1E1F2021222325262728294C
:402D80002A2B2E2F3031323334354300F8B5C046F8BC08BC9E467047C12400002D260000F8B5C046F8BC08BC9E46704799240000C02D0000C80000208000000050000000C9
:402DC00000000000010000000000E02EC05D00001800000000366E010404040000000000000000000000000000000000000000000000000000000000000000008A2D000027
:402E0000000000000000000000000000000000000000000000000000000000000000000000000000000000000000000000000000000000000000000000000000E40000208E
:402E40000000000000000000000000000000000000000000000000000000000000000000000000000000000000000000000000000000000000000000000000000000000052
:402E80000000000000000000000000000000000000000000000000000000000000000000000000000000000000000000000000000000000000000000000000000000000012
:402EC00000000000000000000000000000000000000000000000000000000000000000000000000000000000000000000000000000000000000000000000000000000000D2
:402F00000000000000000000000000000000000000000000000000000000000000000000000000000000000000000000000000000000000000000000000000000000000091
:407FC0004F1123000045000000800B00000000000000000000000000000000000000000000000000000000000000000000000000000000000000000000000000000000002E
:0200000490303A
:02000000F59178
:0200000490402A
:4000000000000000000000000000000000000000000000000000000000000000000000000000000000000000000000000000000000000000000000000000000000000000C0
:0200000490501A
:0C000000000204C81193110104D707246A
:0200000490600A
:0100000001FE
:00000001FF